{
  "_format": "hh-sol-artifact-1",
  "contractName": "gasChallenge",
  "sourceName": "contracts/gasChallenge.sol",
  "abi": [
    {
      "inputs": [],
      "name": "getCachedSum",
      "outputs": [
        {
          "internalType": "uint256",
          "name": "",
          "type": "uint256"
        }
      ],
      "stateMutability": "view",
      "type": "function"
    },
    {
      "inputs": [],
      "name": "getSumOfArray",
      "outputs": [
        {
          "internalType": "uint256",
          "name": "",
          "type": "uint256"
        }
      ],
      "stateMutability": "view",
      "type": "function"
    },
    {
      "inputs": [],
      "name": "notOptimizedFunction",
      "outputs": [],
      "stateMutability": "nonpayable",
      "type": "function"
    },
    {
      "inputs": [],
      "name": "optimizedFunction",
      "outputs": [],
      "stateMutability": "nonpayable",
      "type": "function"
    }
  ],
  "bytecode": "0x6080604052604051806101400160405280600160ff168152602001600260ff168152602001600360ff168152602001600460ff168152602001600560ff168152602001600660ff168152602001600760ff168152602001600860ff168152602001600960ff168152602001600a60ff16815250600090600a610082929190610095565b5034801561008f57600080fd5b506100f7565b82600a81019282156100c9579160200282015b828111156100c8578251829060ff169055916020019190600101906100a8565b5b5090506100d691906100da565b5090565b5b808211156100f35760008160009055506001016100db565b5090565b6102ba806101066000396000f3fe608060405234801561001057600080fd5b506004361061004c5760003560e01c806368b5f223146100515780637ce418941461005b57806380d2c80314610065578063e6c6f06814610083575b600080fd5b6100596100a1565b005b6100636100dd565b005b61006d61011b565b60405161007a919061018f565b60405180910390f35b61008b61016c565b604051610098919061018f565b60405180910390f35b60005b600a8110156100da5760008082600a81106100c2576100c16101aa565b5b018190555080806100d290610208565b9150506100a4565b50565b60005b600a8110156101105760008082600a81106100fe576100fd6101aa565b5b018190555080806001019150506100e0565b506000600a81905550565b6000806000905060005b600a81101561016457600081600a8110610142576101416101aa565b5b01548261014f9190610250565b9150808061015c90610208565b915050610125565b508091505090565b6000600a54905090565b6000819050919050565b61018981610176565b82525050565b60006020820190506101a46000830184610180565b92915050565b7f4e487b7100000000000000000000000000000000000000000000000000000000600052603260045260246000fd5b7f4e487b7100000000000000000000000000000000000000000000000000000000600052601160045260246000fd5b600061021382610176565b91507fffffffffffffffffffffffffffffffffffffffffffffffffffffffffffffffff8203610245576102446101d9565b5b600182019050919050565b600061025b82610176565b915061026683610176565b925082820190508082111561027e5761027d6101d9565b5b9291505056fea26469706673582212202187d29e425ad1d47deac84aa6c9c498e136689e86ecbc28e072ba75d4d9a82e64736f6c63430008120033",
  "linkReferences": {},
  "deployedLinkReferences": {}
}